{
  "_format": "hh3-artifact-1",
  "contractName": "CampusIdentity",
  "sourceName": "contracts/CampusIdentity.sol",
  "abi": [
    {
      "inputs": [],
      "stateMutability": "nonpayable",
      "type": "constructor"
    },
    {
      "inputs": [
        {
          "internalType": "address",
          "name": "owner",
          "type": "address"
        }
      ],
      "name": "OwnableInvalidOwner",
      "type": "error"
    },
    {
      "inputs": [
        {
          "internalType": "address",
          "name": "account",
          "type": "address"
        }
      ],
      "name": "OwnableUnauthorizedAccount",
      "type": "error"
    },
    {
      "anonymous": false,
      "inputs": [
        {
          "indexed": true,
          "internalType": "address",
          "name": "previousOwner",
          "type": "address"
        },
        {
          "indexed": true,
          "internalType": "address",
          "name": "newOwner",
          "type": "address"
        }
      ],
      "name": "OwnershipTransferred",
      "type": "event"
    },
    {
      "anonymous": false,
      "inputs": [
        {
          "indexed": true,
          "internalType": "address",
          "name": "wallet",
          "type": "address"
        },
        {
          "indexed": false,
          "internalType": "uint256",
          "name": "newScore",
          "type": "uint256"
        }
      ],
      "name": "ReputationUpdated",
      "type": "event"
    },
    {
      "anonymous": false,
      "inputs": [
        {
          "indexed": true,
          "internalType": "address",
          "name": "wallet",
          "type": "address"
        },
        {
          "indexed": false,
          "internalType": "string",
          "name": "studentId",
          "type": "string"
        },
        {
          "indexed": false,
          "internalType": "string",
          "name": "name",
          "type": "string"
        }
      ],
      "name": "StudentRegistered",
      "type": "event"
    },
    {
      "inputs": [
        {
          "internalType": "address",
          "name": "modifierContract",
          "type": "address"
        }
      ],
      "name": "addAuthorizedModifier",
      "outputs": [],
      "stateMutability": "nonpayable",
      "type": "function"
    },
    {
      "inputs": [
        {
          "internalType": "address",
          "name": "",
          "type": "address"
        }
      ],
      "name": "authorizedModifiers",
      "outputs": [
        {
          "internalType": "bool",
          "name": "",
          "type": "bool"
        }
      ],
      "stateMutability": "view",
      "type": "function"
    },
    {
      "inputs": [
        {
          "internalType": "address",
          "name": "wallet",
          "type": "address"
        }
      ],
      "name": "getReputation",
      "outputs": [
        {
          "internalType": "uint256",
          "name": "",
          "type": "uint256"
        }
      ],
      "stateMutability": "view",
      "type": "function"
    },
    {
      "inputs": [
        {
          "internalType": "string",
          "name": "",
          "type": "string"
        }
      ],
      "name": "idToAddress",
      "outputs": [
        {
          "internalType": "address",
          "name": "",
          "type": "address"
        }
      ],
      "stateMutability": "view",
      "type": "function"
    },
    {
      "inputs": [],
      "name": "owner",
      "outputs": [
        {
          "internalType": "address",
          "name": "",
          "type": "address"
        }
      ],
      "stateMutability": "view",
      "type": "function"
    },
    {
      "inputs": [
        {
          "internalType": "address",
          "name": "wallet",
          "type": "address"
        },
        {
          "internalType": "string",
          "name": "_studentId",
          "type": "string"
        },
        {
          "internalType": "string",
          "name": "_name",
          "type": "string"
        },
        {
          "internalType": "string",
          "name": "_department",
          "type": "string"
        },
        {
          "internalType": "string",
          "name": "_year",
          "type": "string"
        }
      ],
      "name": "registerStudent",
      "outputs": [],
      "stateMutability": "nonpayable",
      "type": "function"
    },
    {
      "inputs": [],
      "name": "renounceOwnership",
      "outputs": [],
      "stateMutability": "nonpayable",
      "type": "function"
    },
    {
      "inputs": [
        {
          "internalType": "address",
          "name": "",
          "type": "address"
        }
      ],
      "name": "students",
      "outputs": [
        {
          "internalType": "string",
          "name": "studentId",
          "type": "string"
        },
        {
          "internalType": "string",
          "name": "name",
          "type": "string"
        },
        {
          "internalType": "string",
          "name": "department",
          "type": "string"
        },
        {
          "internalType": "string",
          "name": "year",
          "type": "string"
        },
        {
          "internalType": "uint256",
          "name": "reputationScore",
          "type": "uint256"
        },
        {
          "internalType": "bool",
          "name": "isRegistered",
          "type": "bool"
        }
      ],
      "stateMutability": "view",
      "type": "function"
    },
    {
      "inputs": [
        {
          "internalType": "address",
          "name": "newOwner",
          "type": "address"
        }
      ],
      "name": "transferOwnership",
      "outputs": [],
      "stateMutability": "nonpayable",
      "type": "function"
    },
    {
      "inputs": [
        {
          "internalType": "address",
          "name": "wallet",
          "type": "address"
        },
        {
          "internalType": "int256",
          "name": "change",
          "type": "int256"
        }
      ],
      "name": "updateReputation",
      "outputs": [],
      "stateMutability": "nonpayable",
      "type": "function"
    }
  ],
  "bytecode": "0x608060405234801561000f575f5ffd5b50335f73ffffffffffffffffffffffffffffffffffffffff168173ffffffffffffffffffffffffffffffffffffffff1603610081575f6040517f1e4fbdf70000000000000000000000000000000000000000000000000000000081526004016100789190610196565b60405180910390fd5b6100908161009660201b60201c565b506101af565b5f5f5f9054906101000a900473ffffffffffffffffffffffffffffffffffffffff169050815f5f6101000a81548173ffffffffffffffffffffffffffffffffffffffff021916908373ffffffffffffffffffffffffffffffffffffffff1602179055508173ffffffffffffffffffffffffffffffffffffffff168173ffffffffffffffffffffffffffffffffffffffff167f8be0079c531659141344cd1fd0a4f28419497f9722a3daafe3b4186f6b6457e060405160405180910390a35050565b5f73ffffffffffffffffffffffffffffffffffffffff82169050919050565b5f61018082610157565b9050919050565b61019081610176565b82525050565b5f6020820190506101a95f830184610187565b92915050565b61171c806101bc5f395ff3fe608060405234801561000f575f5ffd5b506004361061009c575f3560e01c8063715018a611610064578063715018a6146101545780638da5cb5b1461015e5780639c89a0e21461017c578063a6c807a9146101ac578063f2fde38b146101e15761009c565b8063252cc127146100a057806328363fe2146100d05780635817e9d8146101005780635e8499e91461011c5780636a08b51114610138575b5f5ffd5b6100ba60048036038101906100b59190610d1a565b6101fd565b6040516100c79190610d5f565b60405180910390f35b6100ea60048036038101906100e59190610eb4565b61021a565b6040516100f79190610f0a565b60405180910390f35b61011a60048036038101906101159190610f23565b610262565b005b61013660048036038101906101319190610d1a565b610545565b005b610152600480360381019061014d919061103d565b6105a5565b005b61015c6107fd565b005b610166610810565b6040516101739190610f0a565b60405180910390f35b61019660048036038101906101919190610d1a565b610837565b6040516101a39190611093565b60405180910390f35b6101c660048036038101906101c19190610d1a565b610880565b6040516101d89695949392919061110c565b60405180910390f35b6101fb60048036038101906101f69190610d1a565b610adc565b005b6003602052805f5260405f205f915054906101000a900460ff1681565b6002818051602081018201805184825260208301602085012081835280955050505050505f915054906101000a900473ffffffffffffffffffffffffffffffffffffffff1681565b61026a610b60565b60015f8673ffffffffffffffffffffffffffffffffffffffff1673ffffffffffffffffffffffffffffffffffffffff1681526020019081526020015f206005015f9054906101000a900460ff16156102f7576040517f08c379a00000000000000000000000000000000000000000000000000000000081526004016102ee906111d1565b60405180910390fd5b5f73ffffffffffffffffffffffffffffffffffffffff1660028560405161031e9190611229565b90815260200160405180910390205f9054906101000a900473ffffffffffffffffffffffffffffffffffffffff1673ffffffffffffffffffffffffffffffffffffffff16146103a2576040517f08c379a000000000000000000000000000000000000000000000000000000000815260040161039990611289565b60405180910390fd5b6040518060c00160405280858152602001848152602001838152602001828152602001603281526020016001151581525060015f8773ffffffffffffffffffffffffffffffffffffffff1673ffffffffffffffffffffffffffffffffffffffff1681526020019081526020015f205f820151815f01908161042391906114a4565b50602082015181600101908161043991906114a4565b50604082015181600201908161044f91906114a4565b50606082015181600301908161046591906114a4565b506080820151816004015560a0820151816005015f6101000a81548160ff021916908315150217905550905050846002856040516104a39190611229565b90815260200160405180910390205f6101000a81548173ffffffffffffffffffffffffffffffffffffffff021916908373ffffffffffffffffffffffffffffffffffffffff1602179055508473ffffffffffffffffffffffffffffffffffffffff167f5a50055b3981e19f1c8cb31d2bf002360afb82c9a429fa8d5774508a689f75c98585604051610536929190611573565b60405180910390a25050505050565b61054d610b60565b600160035f8373ffffffffffffffffffffffffffffffffffffffff1673ffffffffffffffffffffffffffffffffffffffff1681526020019081526020015f205f6101000a81548160ff02191690831515021790555050565b3373ffffffffffffffffffffffffffffffffffffffff166105c4610810565b73ffffffffffffffffffffffffffffffffffffffff16148061062c575060035f3373ffffffffffffffffffffffffffffffffffffffff1673ffffffffffffffffffffffffffffffffffffffff1681526020019081526020015f205f9054906101000a900460ff165b61066b576040517f08c379a0000000000000000000000000000000000000000000000000000000008152600401610662906115f2565b60405180910390fd5b60015f8373ffffffffffffffffffffffffffffffffffffffff1673ffffffffffffffffffffffffffffffffffffffff1681526020019081526020015f206005015f9054906101000a900460ff166106f7576040517f08c379a00000000000000000000000000000000000000000000000000000000081526004016106ee9061165a565b60405180910390fd5b5f60015f8473ffffffffffffffffffffffffffffffffffffffff1673ffffffffffffffffffffffffffffffffffffffff1681526020019081526020015f206004015490505f828261074891906116a5565b9050606481131561075857606490505b5f811215610764575f90505b8060015f8673ffffffffffffffffffffffffffffffffffffffff1673ffffffffffffffffffffffffffffffffffffffff1681526020019081526020015f20600401819055508373ffffffffffffffffffffffffffffffffffffffff167ffc577563f1b9a0461e24abef1e1fcc0d33d3d881f20b5df6dda59de4aae2c821826040516107ef9190611093565b60405180910390a250505050565b610805610b60565b61080e5f610be7565b565b5f5f5f9054906101000a900473ffffffffffffffffffffffffffffffffffffffff16905090565b5f60015f8373ffffffffffffffffffffffffffffffffffffffff1673ffffffffffffffffffffffffffffffffffffffff1681526020019081526020015f20600401549050919050565b6001602052805f5260405f205f91509050805f01805461089f906112d4565b80601f01602080910402602001604051908101604052809291908181526020018280546108cb906112d4565b80156109165780601f106108ed57610100808354040283529160200191610916565b820191905f5260205f20905b8154815290600101906020018083116108f957829003601f168201915b50505050509080600101805461092b906112d4565b80601f0160208091040260200160405190810160405280929190818152602001828054610957906112d4565b80156109a25780601f10610979576101008083540402835291602001916109a2565b820191905f5260205f20905b81548152906001019060200180831161098557829003601f168201915b5050505050908060020180546109b7906112d4565b80601f01602080910402602001604051908101604052809291908181526020018280546109e3906112d4565b8015610a2e5780601f10610a0557610100808354040283529160200191610a2e565b820191905f5260205f20905b815481529060010190602001808311610a1157829003601f168201915b505050505090806003018054610a43906112d4565b80601f0160208091040260200160405190810160405280929190818152602001828054610a6f906112d4565b8015610aba5780601f10610a9157610100808354040283529160200191610aba565b820191905f5260205f20905b815481529060010190602001808311610a9d57829003601f168201915b505050505090806004015490806005015f9054906101000a900460ff16905086565b610ae4610b60565b5f73ffffffffffffffffffffffffffffffffffffffff168173ffffffffffffffffffffffffffffffffffffffff1603610b54575f6040517f1e4fbdf7000000000000000000000000000000000000000000000000000000008152600401610b4b9190610f0a565b60405180910390fd5b610b5d81610be7565b50565b610b68610ca8565b73ffffffffffffffffffffffffffffffffffffffff16610b86610810565b73ffffffffffffffffffffffffffffffffffffffff1614610be557610ba9610ca8565b6040517f118cdaa7000000000000000000000000000000000000000000000000000000008152600401610bdc9190610f0a565b60405180910390fd5b565b5f5f5f9054906101000a900473ffffffffffffffffffffffffffffffffffffffff169050815f5f6101000a81548173ffffffffffffffffffffffffffffffffffffffff021916908373ffffffffffffffffffffffffffffffffffffffff1602179055508173ffffffffffffffffffffffffffffffffffffffff168173ffffffffffffffffffffffffffffffffffffffff167f8be0079c531659141344cd1fd0a4f28419497f9722a3daafe3b4186f6b6457e060405160405180910390a35050565b5f33905090565b5f604051905090565b5f5ffd5b5f5ffd5b5f73ffffffffffffffffffffffffffffffffffffffff82169050919050565b5f610ce982610cc0565b9050919050565b610cf981610cdf565b8114610d03575f5ffd5b50565b5f81359050610d1481610cf0565b92915050565b5f60208284031215610d2f57610d2e610cb8565b5b5f610d3c84828501610d06565b91505092915050565b5f8115159050919050565b610d5981610d45565b82525050565b5f602082019050610d725f830184610d50565b92915050565b5f5ffd5b5f5ffd5b5f601f19601f8301169050919050565b7f4e487b71000000000000000000000000000000000000000000000000000000005f52604160045260245ffd5b610dc682610d80565b810181811067ffffffffffffffff82111715610de557610de4610d90565b5b80604052505050565b5f610df7610caf565b9050610e038282610dbd565b919050565b5f67ffffffffffffffff821115610e2257610e21610d90565b5b610e2b82610d80565b9050602081019050919050565b828183375f83830152505050565b5f610e58610e5384610e08565b610dee565b905082815260208101848484011115610e7457610e73610d7c565b5b610e7f848285610e38565b509392505050565b5f82601f830112610e9b57610e9a610d78565b5b8135610eab848260208601610e46565b91505092915050565b5f60208284031215610ec957610ec8610cb8565b5b5f82013567ffffffffffffffff811115610ee657610ee5610cbc565b5b610ef284828501610e87565b91505092915050565b610f0481610cdf565b82525050565b5f602082019050610f1d5f830184610efb565b92915050565b5f5f5f5f5f60a08688031215610f3c57610f3b610cb8565b5b5f610f4988828901610d06565b955050602086013567ffffffffffffffff811115610f6a57610f69610cbc565b5b610f7688828901610e87565b945050604086013567ffffffffffffffff811115610f9757610f96610cbc565b5b610fa388828901610e87565b935050606086013567ffffffffffffffff811115610fc457610fc3610cbc565b5b610fd088828901610e87565b925050608086013567ffffffffffffffff811115610ff157610ff0610cbc565b5b610ffd88828901610e87565b9150509295509295909350565b5f819050919050565b61101c8161100a565b8114611026575f5ffd5b50565b5f8135905061103781611013565b92915050565b5f5f6040838503121561105357611052610cb8565b5b5f61106085828601610d06565b925050602061107185828601611029565b9150509250929050565b5f819050919050565b61108d8161107b565b82525050565b5f6020820190506110a65f830184611084565b92915050565b5f81519050919050565b5f82825260208201905092915050565b8281835e5f83830152505050565b5f6110de826110ac565b6110e881856110b6565b93506110f88185602086016110c6565b61110181610d80565b840191505092915050565b5f60c0820190508181035f83015261112481896110d4565b9050818103602083015261113881886110d4565b9050818103604083015261114c81876110d4565b9050818103606083015261116081866110d4565b905061116f6080830185611084565b61117c60a0830184610d50565b979650505050505050565b7f57616c6c657420616c72656164792072656769737465726564000000000000005f82015250565b5f6111bb6019836110b6565b91506111c682611187565b602082019050919050565b5f6020820190508181035f8301526111e8816111af565b9050919050565b5f81905092915050565b5f611203826110ac565b61120d81856111ef565b935061121d8185602086016110c6565b80840191505092915050565b5f61123482846111f9565b915081905092915050565b7f53747564656e7420494420616c726561647920657869737473000000000000005f82015250565b5f6112736019836110b6565b915061127e8261123f565b602082019050919050565b5f6020820190508181035f8301526112a081611267565b9050919050565b7f4e487b71000000000000000000000000000000000000000000000000000000005f52602260045260245ffd5b5f60028204905060018216806112eb57607f821691505b6020821081036112fe576112fd6112a7565b5b50919050565b5f819050815f5260205f209050919050565b5f6020601f8301049050919050565b5f82821b905092915050565b5f600883026113607fffffffffffffffffffffffffffffffffffffffffffffffffffffffffffffffff82611325565b61136a8683611325565b95508019841693508086168417925050509392505050565b5f819050919050565b5f6113a56113a061139b8461107b565b611382565b61107b565b9050919050565b5f819050919050565b6113be8361138b565b6113d26113ca826113ac565b848454611331565b825550505050565b5f5f905090565b6113e96113da565b6113f48184846113b5565b505050565b5b818110156114175761140c5f826113e1565b6001810190506113fa565b5050565b601f82111561145c5761142d81611304565b61143684611316565b81016020851015611445578190505b61145961145185611316565b8301826113f9565b50505b505050565b5f82821c905092915050565b5f61147c5f1984600802611461565b1980831691505092915050565b5f611494838361146d565b9150826002028217905092915050565b6114ad826110ac565b67ffffffffffffffff8111156114c6576114c5610d90565b5b6114d082546112d4565b6114db82828561141b565b5f60209050601f83116001811461150c575f84156114fa578287015190505b6115048582611489565b86555061156b565b601f19841661151a86611304565b5f5b828110156115415784890151825560018201915060208501945060208101905061151c565b8683101561155e578489015161155a601f89168261146d565b8355505b6001600288020188555050505b505050505050565b5f6040820190508181035f83015261158b81856110d4565b9050818103602083015261159f81846110d4565b90509392505050565b7f4e6f7420617574686f72697a65640000000000000000000000000000000000005f82015250565b5f6115dc600e836110b6565b91506115e7826115a8565b602082019050919050565b5f6020820190508181035f830152611609816115d0565b9050919050565b7f53747564656e74206e6f742072656769737465726564000000000000000000005f82015250565b5f6116446016836110b6565b915061164f82611610565b602082019050919050565b5f6020820190508181035f83015261167181611638565b9050919050565b7f4e487b71000000000000000000000000000000000000000000000000000000005f52601160045260245ffd5b5f6116af8261100a565b91506116ba8361100a565b92508282019050828112155f8312168382125f8412151617156116e0576116df611678565b5b9291505056fea26469706673582212208506a52c396324cded6eb9a459d39783dcc22fef35b94239a11d0e242bb9f4e464736f6c634300081c0033",
  "linkReferences": {},
  "deployedLinkReferences": {},
  "immutableReferences": {},
  "inputSourceName": "project/contracts/CampusIdentity.sol",
  "buildInfoId": "solc-0_8_28-341992a09e5bbef66a374b624a9345c717def183"
}