{
  "_format": "hh3-artifact-1",
  "contractName": "CampusDAO",
  "sourceName": "contracts/CampusDAO.sol",
  "abi": [
    {
      "inputs": [
        {
          "internalType": "address",
          "name": "_identityContractAddr",
          "type": "address"
        }
      ],
      "stateMutability": "nonpayable",
      "type": "constructor"
    },
    {
      "inputs": [
        {
          "internalType": "address",
          "name": "owner",
          "type": "address"
        }
      ],
      "name": "OwnableInvalidOwner",
      "type": "error"
    },
    {
      "inputs": [
        {
          "internalType": "address",
          "name": "account",
          "type": "address"
        }
      ],
      "name": "OwnableUnauthorizedAccount",
      "type": "error"
    },
    {
      "anonymous": false,
      "inputs": [
        {
          "indexed": true,
          "internalType": "address",
          "name": "previousOwner",
          "type": "address"
        },
        {
          "indexed": true,
          "internalType": "address",
          "name": "newOwner",
          "type": "address"
        }
      ],
      "name": "OwnershipTransferred",
      "type": "event"
    },
    {
      "anonymous": false,
      "inputs": [
        {
          "indexed": true,
          "internalType": "uint256",
          "name": "proposalId",
          "type": "uint256"
        },
        {
          "indexed": false,
          "internalType": "string",
          "name": "title",
          "type": "string"
        },
        {
          "indexed": false,
          "internalType": "string",
          "name": "description",
          "type": "string"
        },
        {
          "indexed": false,
          "internalType": "address",
          "name": "creator",
          "type": "address"
        }
      ],
      "name": "ProposalCreated",
      "type": "event"
    },
    {
      "anonymous": false,
      "inputs": [
        {
          "indexed": true,
          "internalType": "uint256",
          "name": "proposalId",
          "type": "uint256"
        },
        {
          "indexed": false,
          "internalType": "address",
          "name": "voter",
          "type": "address"
        },
        {
          "indexed": false,
          "internalType": "bool",
          "name": "inFavor",
          "type": "bool"
        },
        {
          "indexed": false,
          "internalType": "uint256",
          "name": "vp",
          "type": "uint256"
        }
      ],
      "name": "Voted",
      "type": "event"
    },
    {
      "inputs": [
        {
          "internalType": "uint256",
          "name": "proposalId",
          "type": "uint256"
        }
      ],
      "name": "closeProposal",
      "outputs": [],
      "stateMutability": "nonpayable",
      "type": "function"
    },
    {
      "inputs": [
        {
          "internalType": "string",
          "name": "title",
          "type": "string"
        },
        {
          "internalType": "string",
          "name": "description",
          "type": "string"
        }
      ],
      "name": "createProposal",
      "outputs": [],
      "stateMutability": "nonpayable",
      "type": "function"
    },
    {
      "inputs": [
        {
          "internalType": "uint256",
          "name": "",
          "type": "uint256"
        },
        {
          "internalType": "address",
          "name": "",
          "type": "address"
        }
      ],
      "name": "hasVoted",
      "outputs": [
        {
          "internalType": "bool",
          "name": "",
          "type": "bool"
        }
      ],
      "stateMutability": "view",
      "type": "function"
    },
    {
      "inputs": [],
      "name": "identityContract",
      "outputs": [
        {
          "internalType": "contract ICampusIdentity",
          "name": "",
          "type": "address"
        }
      ],
      "stateMutability": "view",
      "type": "function"
    },
    {
      "inputs": [],
      "name": "nextProposalId",
      "outputs": [
        {
          "internalType": "uint256",
          "name": "",
          "type": "uint256"
        }
      ],
      "stateMutability": "view",
      "type": "function"
    },
    {
      "inputs": [],
      "name": "owner",
      "outputs": [
        {
          "internalType": "address",
          "name": "",
          "type": "address"
        }
      ],
      "stateMutability": "view",
      "type": "function"
    },
    {
      "inputs": [
        {
          "internalType": "uint256",
          "name": "",
          "type": "uint256"
        }
      ],
      "name": "proposals",
      "outputs": [
        {
          "internalType": "uint256",
          "name": "id",
          "type": "uint256"
        },
        {
          "internalType": "string",
          "name": "title",
          "type": "string"
        },
        {
          "internalType": "string",
          "name": "description",
          "type": "string"
        },
        {
          "internalType": "address",
          "name": "creator",
          "type": "address"
        },
        {
          "internalType": "uint256",
          "name": "votesFor",
          "type": "uint256"
        },
        {
          "internalType": "uint256",
          "name": "votesAgainst",
          "type": "uint256"
        },
        {
          "internalType": "uint256",
          "name": "totalVoters",
          "type": "uint256"
        },
        {
          "internalType": "bool",
          "name": "isActive",
          "type": "bool"
        }
      ],
      "stateMutability": "view",
      "type": "function"
    },
    {
      "inputs": [],
      "name": "renounceOwnership",
      "outputs": [],
      "stateMutability": "nonpayable",
      "type": "function"
    },
    {
      "inputs": [
        {
          "internalType": "address",
          "name": "newOwner",
          "type": "address"
        }
      ],
      "name": "transferOwnership",
      "outputs": [],
      "stateMutability": "nonpayable",
      "type": "function"
    },
    {
      "inputs": [
        {
          "internalType": "uint256",
          "name": "proposalId",
          "type": "uint256"
        },
        {
          "internalType": "bool",
          "name": "inFavor",
          "type": "bool"
        }
      ],
      "name": "vote",
      "outputs": [],
      "stateMutability": "nonpayable",
      "type": "function"
    }
  ],
  "bytecode": "0x608060405234801561000f575f5ffd5b506040516117f63803806117f683398181016040528101906100319190610217565b335f73ffffffffffffffffffffffffffffffffffffffff168173ffffffffffffffffffffffffffffffffffffffff16036100a2575f6040517f1e4fbdf70000000000000000000000000000000000000000000000000000000081526004016100999190610251565b60405180910390fd5b6100b1816100f860201b60201c565b508060015f6101000a81548173ffffffffffffffffffffffffffffffffffffffff021916908373ffffffffffffffffffffffffffffffffffffffff1602179055505061026a565b5f5f5f9054906101000a900473ffffffffffffffffffffffffffffffffffffffff169050815f5f6101000a81548173ffffffffffffffffffffffffffffffffffffffff021916908373ffffffffffffffffffffffffffffffffffffffff1602179055508173ffffffffffffffffffffffffffffffffffffffff168173ffffffffffffffffffffffffffffffffffffffff167f8be0079c531659141344cd1fd0a4f28419497f9722a3daafe3b4186f6b6457e060405160405180910390a35050565b5f5ffd5b5f73ffffffffffffffffffffffffffffffffffffffff82169050919050565b5f6101e6826101bd565b9050919050565b6101f6816101dc565b8114610200575f5ffd5b50565b5f81519050610211816101ed565b92915050565b5f6020828403121561022c5761022b6101b9565b5b5f61023984828501610203565b91505092915050565b61024b816101dc565b82525050565b5f6020820190506102645f830184610242565b92915050565b61157f806102775f395ff3fe608060405234801561000f575f5ffd5b506004361061009c575f3560e01c806367031bae1161006457806367031bae1461015d578063715018a61461017b5780638da5cb5b14610185578063c9d27afe146101a3578063f2fde38b146101bf5761009c565b8063013cf08b146100a05780630386a016146100d75780632ab09d14146100f3578063438596321461011157806365e481e214610141575b5f5ffd5b6100ba60048036038101906100b59190610ae1565b6101db565b6040516100ce989796959493929190610be4565b60405180910390f35b6100f160048036038101906100ec9190610ae1565b610356565b005b6100fb61038c565b6040516101089190610c6e565b60405180910390f35b61012b60048036038101906101269190610cb1565b610392565b6040516101389190610cef565b60405180910390f35b61015b60048036038101906101569190610e34565b6103bc565b005b610165610599565b6040516101729190610f05565b60405180910390f35b6101836105be565b005b61018d6105d1565b60405161019a9190610f1e565b60405180910390f35b6101bd60048036038101906101b89190610f61565b6105f8565b005b6101d960048036038101906101d49190610f9f565b6108ca565b005b6002602052805f5260405f205f91509050805f01549080600101805461020090610ff7565b80601f016020809104026020016040519081016040528092919081815260200182805461022c90610ff7565b80156102775780601f1061024e57610100808354040283529160200191610277565b820191905f5260205f20905b81548152906001019060200180831161025a57829003601f168201915b50505050509080600201805461028c90610ff7565b80601f01602080910402602001604051908101604052809291908181526020018280546102b890610ff7565b80156103035780601f106102da57610100808354040283529160200191610303565b820191905f5260205f20905b8154815290600101906020018083116102e657829003601f168201915b505050505090806003015f9054906101000a900473ffffffffffffffffffffffffffffffffffffffff1690806004015490806005015490806006015490806007015f9054906101000a900460ff16905088565b61035e61094e565b5f60025f8381526020019081526020015f206007015f6101000a81548160ff02191690831515021790555050565b60035481565b6004602052815f5260405f20602052805f5260405f205f915091509054906101000a900460ff1681565b5f60015f9054906101000a900473ffffffffffffffffffffffffffffffffffffffff1673ffffffffffffffffffffffffffffffffffffffff16639c89a0e2336040518263ffffffff1660e01b81526004016104179190610f1e565b602060405180830381865afa158015610432573d5f5f3e3d5ffd5b505050506040513d601f19601f82011682018060405250810190610456919061103b565b9050603281101561049c576040517f08c379a0000000000000000000000000000000000000000000000000000000008152600401610493906110d6565b60405180910390fd5b5f60025f60035481526020019081526020015f209050600354815f0181905550838160010190816104cd919061128b565b50828160020190816104df919061128b565b5033816003015f6101000a81548173ffffffffffffffffffffffffffffffffffffffff021916908373ffffffffffffffffffffffffffffffffffffffff1602179055506001816007015f6101000a81548160ff0219169083151502179055506003547ff5aabab57cdd7d0e77da8679aa7b11fbcd0b690cafe5eb948e7a31af3cdf1aa68585336040516105749392919061135a565b60405180910390a260035f81548092919061058e906113ca565b919050555050505050565b60015f9054906101000a900473ffffffffffffffffffffffffffffffffffffffff1681565b6105c661094e565b6105cf5f6109d5565b565b5f5f5f9054906101000a900473ffffffffffffffffffffffffffffffffffffffff16905090565b5f60025f8481526020019081526020015f209050806007015f9054906101000a900460ff1661065c576040517f08c379a00000000000000000000000000000000000000000000000000000000081526004016106539061145b565b60405180910390fd5b60045f8481526020019081526020015f205f3373ffffffffffffffffffffffffffffffffffffffff1673ffffffffffffffffffffffffffffffffffffffff1681526020019081526020015f205f9054906101000a900460ff16156106f5576040517f08c379a00000000000000000000000000000000000000000000000000000000081526004016106ec906114c3565b60405180910390fd5b5f60015f9054906101000a900473ffffffffffffffffffffffffffffffffffffffff1673ffffffffffffffffffffffffffffffffffffffff16639c89a0e2336040518263ffffffff1660e01b81526004016107509190610f1e565b602060405180830381865afa15801561076b573d5f5f3e3d5ffd5b505050506040513d601f19601f8201168201806040525081019061078f919061103b565b90505f60649050605a82106107a757609690506107c8565b605082106107b857608290506107c7565b601e8210156107c657605090505b5b5b600160045f8781526020019081526020015f205f3373ffffffffffffffffffffffffffffffffffffffff1673ffffffffffffffffffffffffffffffffffffffff1681526020019081526020015f205f6101000a81548160ff0219169083151502179055506001836006015f82825461084091906114e1565b92505081905550831561086c5780836004015f82825461086091906114e1565b92505081905550610887565b80836005015f82825461087f91906114e1565b925050819055505b847f7c2de587c00d75474a0c6c6fa96fd3b45dc974cd4e8a75f712bb84c950dce1b53386846040516108bb93929190611514565b60405180910390a25050505050565b6108d261094e565b5f73ffffffffffffffffffffffffffffffffffffffff168173ffffffffffffffffffffffffffffffffffffffff1603610942575f6040517f1e4fbdf70000000000000000000000000000000000000000000000000000000081526004016109399190610f1e565b60405180910390fd5b61094b816109d5565b50565b610956610a96565b73ffffffffffffffffffffffffffffffffffffffff166109746105d1565b73ffffffffffffffffffffffffffffffffffffffff16146109d357610997610a96565b6040517f118cdaa70000000000000000000000000000000000000000000000000000000081526004016109ca9190610f1e565b60405180910390fd5b565b5f5f5f9054906101000a900473ffffffffffffffffffffffffffffffffffffffff169050815f5f6101000a81548173ffffffffffffffffffffffffffffffffffffffff021916908373ffffffffffffffffffffffffffffffffffffffff1602179055508173ffffffffffffffffffffffffffffffffffffffff168173ffffffffffffffffffffffffffffffffffffffff167f8be0079c531659141344cd1fd0a4f28419497f9722a3daafe3b4186f6b6457e060405160405180910390a35050565b5f33905090565b5f604051905090565b5f5ffd5b5f5ffd5b5f819050919050565b610ac081610aae565b8114610aca575f5ffd5b50565b5f81359050610adb81610ab7565b92915050565b5f60208284031215610af657610af5610aa6565b5b5f610b0384828501610acd565b91505092915050565b610b1581610aae565b82525050565b5f81519050919050565b5f82825260208201905092915050565b8281835e5f83830152505050565b5f601f19601f8301169050919050565b5f610b5d82610b1b565b610b678185610b25565b9350610b77818560208601610b35565b610b8081610b43565b840191505092915050565b5f73ffffffffffffffffffffffffffffffffffffffff82169050919050565b5f610bb482610b8b565b9050919050565b610bc481610baa565b82525050565b5f8115159050919050565b610bde81610bca565b82525050565b5f61010082019050610bf85f83018b610b0c565b8181036020830152610c0a818a610b53565b90508181036040830152610c1e8189610b53565b9050610c2d6060830188610bbb565b610c3a6080830187610b0c565b610c4760a0830186610b0c565b610c5460c0830185610b0c565b610c6160e0830184610bd5565b9998505050505050505050565b5f602082019050610c815f830184610b0c565b92915050565b610c9081610baa565b8114610c9a575f5ffd5b50565b5f81359050610cab81610c87565b92915050565b5f5f60408385031215610cc757610cc6610aa6565b5b5f610cd485828601610acd565b9250506020610ce585828601610c9d565b9150509250929050565b5f602082019050610d025f830184610bd5565b92915050565b5f5ffd5b5f5ffd5b7f4e487b71000000000000000000000000000000000000000000000000000000005f52604160045260245ffd5b610d4682610b43565b810181811067ffffffffffffffff82111715610d6557610d64610d10565b5b80604052505050565b5f610d77610a9d565b9050610d838282610d3d565b919050565b5f67ffffffffffffffff821115610da257610da1610d10565b5b610dab82610b43565b9050602081019050919050565b828183375f83830152505050565b5f610dd8610dd384610d88565b610d6e565b905082815260208101848484011115610df457610df3610d0c565b5b610dff848285610db8565b509392505050565b5f82601f830112610e1b57610e1a610d08565b5b8135610e2b848260208601610dc6565b91505092915050565b5f5f60408385031215610e4a57610e49610aa6565b5b5f83013567ffffffffffffffff811115610e6757610e66610aaa565b5b610e7385828601610e07565b925050602083013567ffffffffffffffff811115610e9457610e93610aaa565b5b610ea085828601610e07565b9150509250929050565b5f819050919050565b5f610ecd610ec8610ec384610b8b565b610eaa565b610b8b565b9050919050565b5f610ede82610eb3565b9050919050565b5f610eef82610ed4565b9050919050565b610eff81610ee5565b82525050565b5f602082019050610f185f830184610ef6565b92915050565b5f602082019050610f315f830184610bbb565b92915050565b610f4081610bca565b8114610f4a575f5ffd5b50565b5f81359050610f5b81610f37565b92915050565b5f5f60408385031215610f7757610f76610aa6565b5b5f610f8485828601610acd565b9250506020610f9585828601610f4d565b9150509250929050565b5f60208284031215610fb457610fb3610aa6565b5b5f610fc184828501610c9d565b91505092915050565b7f4e487b71000000000000000000000000000000000000000000000000000000005f52602260045260245ffd5b5f600282049050600182168061100e57607f821691505b60208210810361102157611020610fca565b5b50919050565b5f8151905061103581610ab7565b92915050565b5f602082840312156110505761104f610aa6565b5b5f61105d84828501611027565b91505092915050565b7f52657075746174696f6e20746f6f206c6f7720746f20617574686f722070726f5f8201527f706f73616c730000000000000000000000000000000000000000000000000000602082015250565b5f6110c0602683610b25565b91506110cb82611066565b604082019050919050565b5f6020820190508181035f8301526110ed816110b4565b9050919050565b5f819050815f5260205f209050919050565b5f6020601f8301049050919050565b5f82821b905092915050565b5f600883026111507fffffffffffffffffffffffffffffffffffffffffffffffffffffffffffffffff82611115565b61115a8683611115565b95508019841693508086168417925050509392505050565b5f61118c61118761118284610aae565b610eaa565b610aae565b9050919050565b5f819050919050565b6111a583611172565b6111b96111b182611193565b848454611121565b825550505050565b5f5f905090565b6111d06111c1565b6111db81848461119c565b505050565b5b818110156111fe576111f35f826111c8565b6001810190506111e1565b5050565b601f82111561124357611214816110f4565b61121d84611106565b8101602085101561122c578190505b61124061123885611106565b8301826111e0565b50505b505050565b5f82821c905092915050565b5f6112635f1984600802611248565b1980831691505092915050565b5f61127b8383611254565b9150826002028217905092915050565b61129482610b1b565b67ffffffffffffffff8111156112ad576112ac610d10565b5b6112b78254610ff7565b6112c2828285611202565b5f60209050601f8311600181146112f3575f84156112e1578287015190505b6112eb8582611270565b865550611352565b601f198416611301866110f4565b5f5b8281101561132857848901518255600182019150602085019450602081019050611303565b868310156113455784890151611341601f891682611254565b8355505b6001600288020188555050505b505050505050565b5f6060820190508181035f8301526113728186610b53565b905081810360208301526113868185610b53565b90506113956040830184610bbb565b949350505050565b7f4e487b71000000000000000000000000000000000000000000000000000000005f52601160045260245ffd5b5f6113d482610aae565b91507fffffffffffffffffffffffffffffffffffffffffffffffffffffffffffffffff82036114065761140561139d565b5b600182019050919050565b7f50726f706f73616c206973206e6f7420616374697665000000000000000000005f82015250565b5f611445601683610b25565b915061145082611411565b602082019050919050565b5f6020820190508181035f83015261147281611439565b9050919050565b7f416c726561647920766f746564206f6e20746869732070726f706f73616c00005f82015250565b5f6114ad601e83610b25565b91506114b882611479565b602082019050919050565b5f6020820190508181035f8301526114da816114a1565b9050919050565b5f6114eb82610aae565b91506114f683610aae565b925082820190508082111561150e5761150d61139d565b5b92915050565b5f6060820190506115275f830186610bbb565b6115346020830185610bd5565b6115416040830184610b0c565b94935050505056fea264697066735822122007dbeb98a5032f0a77bf1e5e1318f567031d939cae1cc167c4bb989ae464aaa564736f6c634300081c0033",
  "linkReferences": {},
  "deployedLinkReferences": {},
  "immutableReferences": {},
  "inputSourceName": "project/contracts/CampusDAO.sol",
  "buildInfoId": "solc-0_8_28-341992a09e5bbef66a374b624a9345c717def183"
}