{
  "_format": "hh3-artifact-1",
  "contractName": "CampusToken",
  "sourceName": "contracts/CampusToken.sol",
  "abi": [
    {
      "inputs": [
        {
          "internalType": "address",
          "name": "_identityContractAddr",
          "type": "address"
        }
      ],
      "stateMutability": "nonpayable",
      "type": "constructor"
    },
    {
      "inputs": [
        {
          "internalType": "address",
          "name": "sender",
          "type": "address"
        },
        {
          "internalType": "uint256",
          "name": "balance",
          "type": "uint256"
        },
        {
          "internalType": "uint256",
          "name": "needed",
          "type": "uint256"
        },
        {
          "internalType": "uint256",
          "name": "tokenId",
          "type": "uint256"
        }
      ],
      "name": "ERC1155InsufficientBalance",
      "type": "error"
    },
    {
      "inputs": [
        {
          "internalType": "address",
          "name": "approver",
          "type": "address"
        }
      ],
      "name": "ERC1155InvalidApprover",
      "type": "error"
    },
    {
      "inputs": [
        {
          "internalType": "uint256",
          "name": "idsLength",
          "type": "uint256"
        },
        {
          "internalType": "uint256",
          "name": "valuesLength",
          "type": "uint256"
        }
      ],
      "name": "ERC1155InvalidArrayLength",
      "type": "error"
    },
    {
      "inputs": [
        {
          "internalType": "address",
          "name": "operator",
          "type": "address"
        }
      ],
      "name": "ERC1155InvalidOperator",
      "type": "error"
    },
    {
      "inputs": [
        {
          "internalType": "address",
          "name": "receiver",
          "type": "address"
        }
      ],
      "name": "ERC1155InvalidReceiver",
      "type": "error"
    },
    {
      "inputs": [
        {
          "internalType": "address",
          "name": "sender",
          "type": "address"
        }
      ],
      "name": "ERC1155InvalidSender",
      "type": "error"
    },
    {
      "inputs": [
        {
          "internalType": "address",
          "name": "operator",
          "type": "address"
        },
        {
          "internalType": "address",
          "name": "owner",
          "type": "address"
        }
      ],
      "name": "ERC1155MissingApprovalForAll",
      "type": "error"
    },
    {
      "inputs": [
        {
          "internalType": "address",
          "name": "owner",
          "type": "address"
        }
      ],
      "name": "OwnableInvalidOwner",
      "type": "error"
    },
    {
      "inputs": [
        {
          "internalType": "address",
          "name": "account",
          "type": "address"
        }
      ],
      "name": "OwnableUnauthorizedAccount",
      "type": "error"
    },
    {
      "anonymous": false,
      "inputs": [
        {
          "indexed": true,
          "internalType": "address",
          "name": "account",
          "type": "address"
        },
        {
          "indexed": true,
          "internalType": "address",
          "name": "operator",
          "type": "address"
        },
        {
          "indexed": false,
          "internalType": "bool",
          "name": "approved",
          "type": "bool"
        }
      ],
      "name": "ApprovalForAll",
      "type": "event"
    },
    {
      "anonymous": false,
      "inputs": [
        {
          "indexed": true,
          "internalType": "address",
          "name": "previousOwner",
          "type": "address"
        },
        {
          "indexed": true,
          "internalType": "address",
          "name": "newOwner",
          "type": "address"
        }
      ],
      "name": "OwnershipTransferred",
      "type": "event"
    },
    {
      "anonymous": false,
      "inputs": [
        {
          "indexed": true,
          "internalType": "address",
          "name": "student",
          "type": "address"
        },
        {
          "indexed": false,
          "internalType": "uint256",
          "name": "tokenId",
          "type": "uint256"
        },
        {
          "indexed": false,
          "internalType": "uint256",
          "name": "baseAmount",
          "type": "uint256"
        },
        {
          "indexed": false,
          "internalType": "uint256",
          "name": "finalAmount",
          "type": "uint256"
        },
        {
          "indexed": false,
          "internalType": "uint256",
          "name": "multiplierBase10",
          "type": "uint256"
        }
      ],
      "name": "TokensEarned",
      "type": "event"
    },
    {
      "anonymous": false,
      "inputs": [
        {
          "indexed": true,
          "internalType": "address",
          "name": "student",
          "type": "address"
        },
        {
          "indexed": false,
          "internalType": "uint256",
          "name": "tokenId",
          "type": "uint256"
        },
        {
          "indexed": false,
          "internalType": "uint256",
          "name": "amount",
          "type": "uint256"
        }
      ],
      "name": "TokensSpent",
      "type": "event"
    },
    {
      "anonymous": false,
      "inputs": [
        {
          "indexed": true,
          "internalType": "address",
          "name": "operator",
          "type": "address"
        },
        {
          "indexed": true,
          "internalType": "address",
          "name": "from",
          "type": "address"
        },
        {
          "indexed": true,
          "internalType": "address",
          "name": "to",
          "type": "address"
        },
        {
          "indexed": false,
          "internalType": "uint256[]",
          "name": "ids",
          "type": "uint256[]"
        },
        {
          "indexed": false,
          "internalType": "uint256[]",
          "name": "values",
          "type": "uint256[]"
        }
      ],
      "name": "TransferBatch",
      "type": "event"
    },
    {
      "anonymous": false,
      "inputs": [
        {
          "indexed": true,
          "internalType": "address",
          "name": "operator",
          "type": "address"
        },
        {
          "indexed": true,
          "internalType": "address",
          "name": "from",
          "type": "address"
        },
        {
          "indexed": true,
          "internalType": "address",
          "name": "to",
          "type": "address"
        },
        {
          "indexed": false,
          "internalType": "uint256",
          "name": "id",
          "type": "uint256"
        },
        {
          "indexed": false,
          "internalType": "uint256",
          "name": "value",
          "type": "uint256"
        }
      ],
      "name": "TransferSingle",
      "type": "event"
    },
    {
      "anonymous": false,
      "inputs": [
        {
          "indexed": false,
          "internalType": "string",
          "name": "value",
          "type": "string"
        },
        {
          "indexed": true,
          "internalType": "uint256",
          "name": "id",
          "type": "uint256"
        }
      ],
      "name": "URI",
      "type": "event"
    },
    {
      "inputs": [],
      "name": "ACADEMIC_TOKEN",
      "outputs": [
        {
          "internalType": "uint256",
          "name": "",
          "type": "uint256"
        }
      ],
      "stateMutability": "view",
      "type": "function"
    },
    {
      "inputs": [],
      "name": "IMPACT_TOKEN",
      "outputs": [
        {
          "internalType": "uint256",
          "name": "",
          "type": "uint256"
        }
      ],
      "stateMutability": "view",
      "type": "function"
    },
    {
      "inputs": [],
      "name": "UTILITY_TOKEN",
      "outputs": [
        {
          "internalType": "uint256",
          "name": "",
          "type": "uint256"
        }
      ],
      "stateMutability": "view",
      "type": "function"
    },
    {
      "inputs": [
        {
          "internalType": "address",
          "name": "",
          "type": "address"
        }
      ],
      "name": "authorizedDistributors",
      "outputs": [
        {
          "internalType": "bool",
          "name": "",
          "type": "bool"
        }
      ],
      "stateMutability": "view",
      "type": "function"
    },
    {
      "inputs": [
        {
          "internalType": "address",
          "name": "account",
          "type": "address"
        },
        {
          "internalType": "uint256",
          "name": "id",
          "type": "uint256"
        }
      ],
      "name": "balanceOf",
      "outputs": [
        {
          "internalType": "uint256",
          "name": "",
          "type": "uint256"
        }
      ],
      "stateMutability": "view",
      "type": "function"
    },
    {
      "inputs": [
        {
          "internalType": "address[]",
          "name": "accounts",
          "type": "address[]"
        },
        {
          "internalType": "uint256[]",
          "name": "ids",
          "type": "uint256[]"
        }
      ],
      "name": "balanceOfBatch",
      "outputs": [
        {
          "internalType": "uint256[]",
          "name": "",
          "type": "uint256[]"
        }
      ],
      "stateMutability": "view",
      "type": "function"
    },
    {
      "inputs": [
        {
          "internalType": "address",
          "name": "student",
          "type": "address"
        },
        {
          "internalType": "uint256",
          "name": "tokenId",
          "type": "uint256"
        },
        {
          "internalType": "uint256",
          "name": "baseAmount",
          "type": "uint256"
        }
      ],
      "name": "earnTokens",
      "outputs": [],
      "stateMutability": "nonpayable",
      "type": "function"
    },
    {
      "inputs": [],
      "name": "identityContract",
      "outputs": [
        {
          "internalType": "contract ICampusIdentity",
          "name": "",
          "type": "address"
        }
      ],
      "stateMutability": "view",
      "type": "function"
    },
    {
      "inputs": [
        {
          "internalType": "address",
          "name": "account",
          "type": "address"
        },
        {
          "internalType": "address",
          "name": "operator",
          "type": "address"
        }
      ],
      "name": "isApprovedForAll",
      "outputs": [
        {
          "internalType": "bool",
          "name": "",
          "type": "bool"
        }
      ],
      "stateMutability": "view",
      "type": "function"
    },
    {
      "inputs": [],
      "name": "owner",
      "outputs": [
        {
          "internalType": "address",
          "name": "",
          "type": "address"
        }
      ],
      "stateMutability": "view",
      "type": "function"
    },
    {
      "inputs": [],
      "name": "renounceOwnership",
      "outputs": [],
      "stateMutability": "nonpayable",
      "type": "function"
    },
    {
      "inputs": [
        {
          "internalType": "address",
          "name": "from",
          "type": "address"
        },
        {
          "internalType": "address",
          "name": "to",
          "type": "address"
        },
        {
          "internalType": "uint256[]",
          "name": "ids",
          "type": "uint256[]"
        },
        {
          "internalType": "uint256[]",
          "name": "values",
          "type": "uint256[]"
        },
        {
          "internalType": "bytes",
          "name": "data",
          "type": "bytes"
        }
      ],
      "name": "safeBatchTransferFrom",
      "outputs": [],
      "stateMutability": "nonpayable",
      "type": "function"
    },
    {
      "inputs": [
        {
          "internalType": "address",
          "name": "from",
          "type": "address"
        },
        {
          "internalType": "address",
          "name": "to",
          "type": "address"
        },
        {
          "internalType": "uint256",
          "name": "id",
          "type": "uint256"
        },
        {
          "internalType": "uint256",
          "name": "value",
          "type": "uint256"
        },
        {
          "internalType": "bytes",
          "name": "data",
          "type": "bytes"
        }
      ],
      "name": "safeTransferFrom",
      "outputs": [],
      "stateMutability": "nonpayable",
      "type": "function"
    },
    {
      "inputs": [
        {
          "internalType": "address",
          "name": "operator",
          "type": "address"
        },
        {
          "internalType": "bool",
          "name": "approved",
          "type": "bool"
        }
      ],
      "name": "setApprovalForAll",
      "outputs": [],
      "stateMutability": "nonpayable",
      "type": "function"
    },
    {
      "inputs": [
        {
          "internalType": "address",
          "name": "distributor",
          "type": "address"
        },
        {
          "internalType": "bool",
          "name": "status",
          "type": "bool"
        }
      ],
      "name": "setDistributor",
      "outputs": [],
      "stateMutability": "nonpayable",
      "type": "function"
    },
    {
      "inputs": [
        {
          "internalType": "address",
          "name": "newAddress",
          "type": "address"
        }
      ],
      "name": "setIdentityContract",
      "outputs": [],
      "stateMutability": "nonpayable",
      "type": "function"
    },
    {
      "inputs": [
        {
          "internalType": "address",
          "name": "student",
          "type": "address"
        },
        {
          "internalType": "uint256",
          "name": "tokenId",
          "type": "uint256"
        },
        {
          "internalType": "uint256",
          "name": "amount",
          "type": "uint256"
        }
      ],
      "name": "spendTokens",
      "outputs": [],
      "stateMutability": "nonpayable",
      "type": "function"
    },
    {
      "inputs": [
        {
          "internalType": "bytes4",
          "name": "interfaceId",
          "type": "bytes4"
        }
      ],
      "name": "supportsInterface",
      "outputs": [
        {
          "internalType": "bool",
          "name": "",
          "type": "bool"
        }
      ],
      "stateMutability": "view",
      "type": "function"
    },
    {
      "inputs": [
        {
          "internalType": "address",
          "name": "newOwner",
          "type": "address"
        }
      ],
      "name": "transferOwnership",
      "outputs": [],
      "stateMutability": "nonpayable",
      "type": "function"
    },
    {
      "inputs": [
        {
          "internalType": "uint256",
          "name": "",
          "type": "uint256"
        }
      ],
      "name": "uri",
      "outputs": [
        {
          "internalType": "string",
          "name": "",
          "type": "string"
        }
      ],
      "stateMutability": "view",
      "type": "function"
    }
  ],
  "bytecode": "0x608060405234801561000f575f5ffd5b506040516130c43803806130c483398181016040528101906100319190610255565b336040518060600160405280602d8152602001613097602d913961005a8161012160201b60201c565b505f73ffffffffffffffffffffffffffffffffffffffff168173ffffffffffffffffffffffffffffffffffffffff16036100cb575f6040517f1e4fbdf70000000000000000000000000000000000000000000000000000000081526004016100c2919061028f565b60405180910390fd5b6100da8161013460201b60201c565b508060045f6101000a81548173ffffffffffffffffffffffffffffffffffffffff021916908373ffffffffffffffffffffffffffffffffffffffff160217905550506105b4565b806002908161013091906104e5565b5050565b5f60035f9054906101000a900473ffffffffffffffffffffffffffffffffffffffff1690508160035f6101000a81548173ffffffffffffffffffffffffffffffffffffffff021916908373ffffffffffffffffffffffffffffffffffffffff1602179055508173ffffffffffffffffffffffffffffffffffffffff168173ffffffffffffffffffffffffffffffffffffffff167f8be0079c531659141344cd1fd0a4f28419497f9722a3daafe3b4186f6b6457e060405160405180910390a35050565b5f5ffd5b5f73ffffffffffffffffffffffffffffffffffffffff82169050919050565b5f610224826101fb565b9050919050565b6102348161021a565b811461023e575f5ffd5b50565b5f8151905061024f8161022b565b92915050565b5f6020828403121561026a576102696101f7565b5b5f61027784828501610241565b91505092915050565b6102898161021a565b82525050565b5f6020820190506102a25f830184610280565b92915050565b5f81519050919050565b7f4e487b71000000000000000000000000000000000000000000000000000000005f52604160045260245ffd5b7f4e487b71000000000000000000000000000000000000000000000000000000005f52602260045260245ffd5b5f600282049050600182168061032357607f821691505b602082108103610336576103356102df565b5b50919050565b5f819050815f5260205f209050919050565b5f6020601f8301049050919050565b5f82821b905092915050565b5f600883026103987fffffffffffffffffffffffffffffffffffffffffffffffffffffffffffffffff8261035d565b6103a2868361035d565b95508019841693508086168417925050509392505050565b5f819050919050565b5f819050919050565b5f6103e66103e16103dc846103ba565b6103c3565b6103ba565b9050919050565b5f819050919050565b6103ff836103cc565b61041361040b826103ed565b848454610369565b825550505050565b5f5f905090565b61042a61041b565b6104358184846103f6565b505050565b5b818110156104585761044d5f82610422565b60018101905061043b565b5050565b601f82111561049d5761046e8161033c565b6104778461034e565b81016020851015610486578190505b61049a6104928561034e565b83018261043a565b50505b505050565b5f82821c905092915050565b5f6104bd5f19846008026104a2565b1980831691505092915050565b5f6104d583836104ae565b9150826002028217905092915050565b6104ee826102a8565b67ffffffffffffffff811115610507576105066102b2565b5b610511825461030c565b61051c82828561045c565b5f60209050601f83116001811461054d575f841561053b578287015190505b61054585826104ca565b8655506105ac565b601f19841661055b8661033c565b5f5b828110156105825784890151825560018201915060208501945060208101905061055d565b8683101561059f578489015161059b601f8916826104ae565b8355505b6001600288020188555050505b505050505050565b612ad6806105c15f395ff3fe608060405234801561000f575f5ffd5b5060043610610129575f3560e01c80638d1696c9116100ab578063d59ba0df1161006f578063d59ba0df1461032d578063e6d5864b14610349578063e985e9c514610365578063f242432a14610395578063f2fde38b146103b157610129565b80638d1696c9146102875780638da5cb5b146102b7578063a22cb465146102d5578063ba8f8fa4146102f1578063c0aebc2d1461030f57610129565b80634e1273f4116100f25780634e1273f4146101f757806367031bae146102275780636e8676a614610245578063715018a61461026157806375cd04051461026b57610129565b8062fdd58e1461012d57806301ffc9a71461015d5780630e89341c1461018d5780630e9ed6b2146101bd5780632eb2c2d6146101db575b5f5ffd5b61014760048036038101906101429190611cc5565b6103cd565b6040516101549190611d12565b60405180910390f35b61017760048036038101906101729190611d80565b610422565b6040516101849190611dc5565b60405180910390f35b6101a760048036038101906101a29190611dde565b610503565b6040516101b49190611e79565b60405180910390f35b6101c5610595565b6040516101d29190611d12565b60405180910390f35b6101f560048036038101906101f09190612089565b61059a565b005b610211600480360381019061020c9190612214565b6105bf565b60405161021e9190612341565b60405180910390f35b61022f6106c9565b60405161023c91906123bc565b60405180910390f35b61025f600480360381019061025a91906123d5565b6106ee565b005b610269610860565b005b610285600480360381019061028091906123d5565b610873565b005b6102a1600480360381019061029c9190612425565b610a9c565b6040516102ae9190611dc5565b60405180910390f35b6102bf610ab9565b6040516102cc919061245f565b60405180910390f35b6102ef60048036038101906102ea91906124a2565b610ae1565b005b6102f9610af7565b6040516103069190611d12565b60405180910390f35b610317610afb565b6040516103249190611d12565b60405180910390f35b610347600480360381019061034291906124a2565b610b00565b005b610363600480360381019061035e9190612425565b610b60565b005b61037f600480360381019061037a91906124e0565b610bab565b60405161038c9190611dc5565b60405180910390f35b6103af60048036038101906103aa919061251e565b610c39565b005b6103cb60048036038101906103c69190612425565b610c5e565b005b5f5f5f8381526020019081526020015f205f8473ffffffffffffffffffffffffffffffffffffffff1673ffffffffffffffffffffffffffffffffffffffff1681526020019081526020015f2054905092915050565b5f7fd9b67a26000000000000000000000000000000000000000000000000000000007bffffffffffffffffffffffffffffffffffffffffffffffffffffffff1916827bffffffffffffffffffffffffffffffffffffffffffffffffffffffff191614806104ec57507f0e89341c000000000000000000000000000000000000000000000000000000007bffffffffffffffffffffffffffffffffffffffffffffffffffffffff1916827bffffffffffffffffffffffffffffffffffffffffffffffffffffffff1916145b806104fc57506104fb82610ce2565b5b9050919050565b606060028054610512906125de565b80601f016020809104026020016040519081016040528092919081815260200182805461053e906125de565b80156105895780601f1061056057610100808354040283529160200191610589565b820191905f5260205f20905b81548152906001019060200180831161056c57829003601f168201915b50505050509050919050565b600181565b6105ab6105a5610d4b565b86610d52565b6105b88585858585610ddd565b5050505050565b6060815183511461060b57815183516040517f5b05999100000000000000000000000000000000000000000000000000000000815260040161060292919061260e565b60405180910390fd5b5f835167ffffffffffffffff81111561062757610626611e9d565b5b6040519080825280602002602001820160405280156106555781602001602082028036833780820191505090505b5090505f5f90505b84518110156106be5761069461067c8287610ed390919063ffffffff16565b61068f8387610ee690919063ffffffff16565b6103cd565b8282815181106106a7576106a6612635565b5b60200260200101818152505080600101905061065d565b508091505092915050565b60045f9054906101000a900473ffffffffffffffffffffffffffffffffffffffff1681565b3373ffffffffffffffffffffffffffffffffffffffff1661070d610ab9565b73ffffffffffffffffffffffffffffffffffffffff161480610775575060055f3373ffffffffffffffffffffffffffffffffffffffff1673ffffffffffffffffffffffffffffffffffffffff1681526020019081526020015f205f9054906101000a900460ff165b6107b4576040517f08c379a00000000000000000000000000000000000000000000000000000000081526004016107ab906126ac565b60405180910390fd5b806107bf84846103cd565b1015610800576040517f08c379a00000000000000000000000000000000000000000000000000000000081526004016107f790612714565b60405180910390fd5b61080b838383610ef9565b8273ffffffffffffffffffffffffffffffffffffffff167f5646242e867da7c1028c3c81d6880c798d645143e50d562e2a5e39fde4811912838360405161085392919061260e565b60405180910390a2505050565b610868610f9c565b6108715f611023565b565b3373ffffffffffffffffffffffffffffffffffffffff16610892610ab9565b73ffffffffffffffffffffffffffffffffffffffff1614806108fa575060055f3373ffffffffffffffffffffffffffffffffffffffff1673ffffffffffffffffffffffffffffffffffffffff1681526020019081526020015f205f9054906101000a900460ff165b610939576040517f08c379a0000000000000000000000000000000000000000000000000000000008152600401610930906126ac565b60405180910390fd5b5f60045f9054906101000a900473ffffffffffffffffffffffffffffffffffffffff1673ffffffffffffffffffffffffffffffffffffffff16639c89a0e2856040518263ffffffff1660e01b8152600401610994919061245f565b602060405180830381865afa1580156109af573d5f5f3e3d5ffd5b505050506040513d601f19601f820116820180604052508101906109d39190612746565b90505f600a9050605a82106109eb57600f9050610a0b565b605082106109fc57600d9050610a0a565b601e8211610a0957600890505b5b5b5f600a8285610a1a919061279e565b610a24919061280c565b9050610a4086868360405180602001604052805f8152506110e6565b8573ffffffffffffffffffffffffffffffffffffffff167fc8d5f4feb5c36635bb50d275ca440473d4b140256a81842555dfc9e6b88a266786868486604051610a8c949392919061283c565b60405180910390a2505050505050565b6005602052805f5260405f205f915054906101000a900460ff1681565b5f60035f9054906101000a900473ffffffffffffffffffffffffffffffffffffffff16905090565b610af3610aec610d4b565b838361117c565b5050565b5f81565b600281565b610b08610f9c565b8060055f8473ffffffffffffffffffffffffffffffffffffffff1673ffffffffffffffffffffffffffffffffffffffff1681526020019081526020015f205f6101000a81548160ff0219169083151502179055505050565b610b68610f9c565b8060045f6101000a81548173ffffffffffffffffffffffffffffffffffffffff021916908373ffffffffffffffffffffffffffffffffffffffff16021790555050565b5f60015f8473ffffffffffffffffffffffffffffffffffffffff1673ffffffffffffffffffffffffffffffffffffffff1681526020019081526020015f205f8373ffffffffffffffffffffffffffffffffffffffff1673ffffffffffffffffffffffffffffffffffffffff1681526020019081526020015f205f9054906101000a900460ff16905092915050565b610c4a610c44610d4b565b86610d52565b610c578585858585611355565b5050505050565b610c66610f9c565b5f73ffffffffffffffffffffffffffffffffffffffff168173ffffffffffffffffffffffffffffffffffffffff1603610cd6575f6040517f1e4fbdf7000000000000000000000000000000000000000000000000000000008152600401610ccd919061245f565b60405180910390fd5b610cdf81611023565b50565b5f7f01ffc9a7000000000000000000000000000000000000000000000000000000007bffffffffffffffffffffffffffffffffffffffffffffffffffffffff1916827bffffffffffffffffffffffffffffffffffffffffffffffffffffffff1916149050919050565b5f33905090565b8173ffffffffffffffffffffffffffffffffffffffff168173ffffffffffffffffffffffffffffffffffffffff1614158015610d955750610d938183610bab565b155b15610dd95781816040517fe237d922000000000000000000000000000000000000000000000000000000008152600401610dd092919061287f565b60405180910390fd5b5050565b5f73ffffffffffffffffffffffffffffffffffffffff168473ffffffffffffffffffffffffffffffffffffffff1603610e4d575f6040517f57f447ce000000000000000000000000000000000000000000000000000000008152600401610e44919061245f565b60405180910390fd5b5f73ffffffffffffffffffffffffffffffffffffffff168573ffffffffffffffffffffffffffffffffffffffff1603610ebd575f6040517f01a83514000000000000000000000000000000000000000000000000000000008152600401610eb4919061245f565b60405180910390fd5b610ecc8585858585600161145c565b5050505050565b5f60208202602084010151905092915050565b5f60208202602084010151905092915050565b5f73ffffffffffffffffffffffffffffffffffffffff168373ffffffffffffffffffffffffffffffffffffffff1603610f69575f6040517f01a83514000000000000000000000000000000000000000000000000000000008152600401610f60919061245f565b60405180910390fd5b5f5f610f758484611506565b91509150610f95855f848460405180602001604052805f8152505f61145c565b5050505050565b610fa4610d4b565b73ffffffffffffffffffffffffffffffffffffffff16610fc2610ab9565b73ffffffffffffffffffffffffffffffffffffffff161461102157610fe5610d4b565b6040517f118cdaa7000000000000000000000000000000000000000000000000000000008152600401611018919061245f565b60405180910390fd5b565b5f60035f9054906101000a900473ffffffffffffffffffffffffffffffffffffffff1690508160035f6101000a81548173ffffffffffffffffffffffffffffffffffffffff021916908373ffffffffffffffffffffffffffffffffffffffff1602179055508173ffffffffffffffffffffffffffffffffffffffff168173ffffffffffffffffffffffffffffffffffffffff167f8be0079c531659141344cd1fd0a4f28419497f9722a3daafe3b4186f6b6457e060405160405180910390a35050565b5f73ffffffffffffffffffffffffffffffffffffffff168473ffffffffffffffffffffffffffffffffffffffff1603611156575f6040517f57f447ce00000000000000000000000000000000000000000000000000000000815260040161114d919061245f565b60405180910390fd5b5f5f6111628585611506565b915091506111745f878484875f61145c565b505050505050565b5f73ffffffffffffffffffffffffffffffffffffffff168373ffffffffffffffffffffffffffffffffffffffff16036111ec575f6040517f3e31884e0000000000000000000000000000000000000000000000000000000081526004016111e3919061245f565b60405180910390fd5b5f73ffffffffffffffffffffffffffffffffffffffff168273ffffffffffffffffffffffffffffffffffffffff160361125c575f6040517fced3e100000000000000000000000000000000000000000000000000000000008152600401611253919061245f565b60405180910390fd5b8060015f8573ffffffffffffffffffffffffffffffffffffffff1673ffffffffffffffffffffffffffffffffffffffff1681526020019081526020015f205f8473ffffffffffffffffffffffffffffffffffffffff1673ffffffffffffffffffffffffffffffffffffffff1681526020019081526020015f205f6101000a81548160ff0219169083151502179055508173ffffffffffffffffffffffffffffffffffffffff168373ffffffffffffffffffffffffffffffffffffffff167f17307eab39ab6107e8899845ad3d59bd9653f200f220920489ca2b5937696c31836040516113489190611dc5565b60405180910390a3505050565b5f73ffffffffffffffffffffffffffffffffffffffff168473ffffffffffffffffffffffffffffffffffffffff16036113c5575f6040517f57f447ce0000000000000000000000000000000000000000000000000000000081526004016113bc919061245f565b60405180910390fd5b5f73ffffffffffffffffffffffffffffffffffffffff168573ffffffffffffffffffffffffffffffffffffffff1603611435575f6040517f01a8351400000000000000000000000000000000000000000000000000000000815260040161142c919061245f565b60405180910390fd5b5f5f6114418585611506565b9150915061145387878484875f61145c565b50505050505050565b61146886868686611536565b5f73ffffffffffffffffffffffffffffffffffffffff168573ffffffffffffffffffffffffffffffffffffffff16146114fe575f6114a4610d4b565b905081156114bf576114ba8188888888886118c9565b6114fc565b5f6114d35f87610ee690919063ffffffff16565b90505f6114e95f87610ee690919063ffffffff16565b90506114f9838a8a85858a611a78565b50505b505b505050505050565b60608060405191506001825283602083015260408201905060018152826020820152604081016040529250929050565b805182511461158057815181516040517f5b05999100000000000000000000000000000000000000000000000000000000815260040161157792919061260e565b60405180910390fd5b5f611589610d4b565b90505f5f90505b8351811015611788575f6115ad8286610ee690919063ffffffff16565b90505f6115c38386610ee690919063ffffffff16565b90505f73ffffffffffffffffffffffffffffffffffffffff168873ffffffffffffffffffffffffffffffffffffffff16146116e6575f5f5f8481526020019081526020015f205f8a73ffffffffffffffffffffffffffffffffffffffff1673ffffffffffffffffffffffffffffffffffffffff1681526020019081526020015f205490508181101561169257888183856040517f03dee4c500000000000000000000000000000000000000000000000000000000815260040161168994939291906128a6565b60405180910390fd5b8181035f5f8581526020019081526020015f205f8b73ffffffffffffffffffffffffffffffffffffffff1673ffffffffffffffffffffffffffffffffffffffff1681526020019081526020015f2081905550505b5f73ffffffffffffffffffffffffffffffffffffffff168773ffffffffffffffffffffffffffffffffffffffff161461177b57805f5f8481526020019081526020015f205f8973ffffffffffffffffffffffffffffffffffffffff1673ffffffffffffffffffffffffffffffffffffffff1681526020019081526020015f205f82825461177391906128e9565b925050819055505b5050806001019050611590565b506001835103611843575f6117a65f85610ee690919063ffffffff16565b90505f6117bc5f85610ee690919063ffffffff16565b90508573ffffffffffffffffffffffffffffffffffffffff168773ffffffffffffffffffffffffffffffffffffffff168473ffffffffffffffffffffffffffffffffffffffff167fc3d58168c5ae7397731d063d5bbf3d657854427343f4c083240f7aacaa2d0f62858560405161183492919061260e565b60405180910390a450506118c2565b8373ffffffffffffffffffffffffffffffffffffffff168573ffffffffffffffffffffffffffffffffffffffff168273ffffffffffffffffffffffffffffffffffffffff167f4a39dc06d4c0dbc64b70af90fd698a233a518aa5d07e595d983b8c0526c8f7fb86866040516118b992919061291c565b60405180910390a45b5050505050565b5f8473ffffffffffffffffffffffffffffffffffffffff163b1115611a70578373ffffffffffffffffffffffffffffffffffffffff1663bc197c8187878686866040518663ffffffff1660e01b81526004016119299594939291906129a3565b6020604051808303815f875af192505050801561196457506040513d601f19601f820116820180604052508101906119619190612a1d565b60015b6119e5573d805f8114611992576040519150601f19603f3d011682016040523d82523d5f602084013e611997565b606091505b505f8151036119dd57846040517f57f447ce0000000000000000000000000000000000000000000000000000000081526004016119d4919061245f565b60405180910390fd5b805160208201fd5b63bc197c8160e01b7bffffffffffffffffffffffffffffffffffffffffffffffffffffffff1916817bffffffffffffffffffffffffffffffffffffffffffffffffffffffff191614611a6e57846040517f57f447ce000000000000000000000000000000000000000000000000000000008152600401611a65919061245f565b60405180910390fd5b505b505050505050565b5f8473ffffffffffffffffffffffffffffffffffffffff163b1115611c1f578373ffffffffffffffffffffffffffffffffffffffff1663f23a6e6187878686866040518663ffffffff1660e01b8152600401611ad8959493929190612a48565b6020604051808303815f875af1925050508015611b1357506040513d601f19601f82011682018060405250810190611b109190612a1d565b60015b611b94573d805f8114611b41576040519150601f19603f3d011682016040523d82523d5f602084013e611b46565b606091505b505f815103611b8c57846040517f57f447ce000000000000000000000000000000000000000000000000000000008152600401611b83919061245f565b60405180910390fd5b805160208201fd5b63f23a6e6160e01b7bffffffffffffffffffffffffffffffffffffffffffffffffffffffff1916817bffffffffffffffffffffffffffffffffffffffffffffffffffffffff191614611c1d57846040517f57f447ce000000000000000000000000000000000000000000000000000000008152600401611c14919061245f565b60405180910390fd5b505b505050505050565b5f604051905090565b5f5ffd5b5f5ffd5b5f73ffffffffffffffffffffffffffffffffffffffff82169050919050565b5f611c6182611c38565b9050919050565b611c7181611c57565b8114611c7b575f5ffd5b50565b5f81359050611c8c81611c68565b92915050565b5f819050919050565b611ca481611c92565b8114611cae575f5ffd5b50565b5f81359050611cbf81611c9b565b92915050565b5f5f60408385031215611cdb57611cda611c30565b5b5f611ce885828601611c7e565b9250506020611cf985828601611cb1565b9150509250929050565b611d0c81611c92565b82525050565b5f602082019050611d255f830184611d03565b92915050565b5f7fffffffff0000000000000000000000000000000000000000000000000000000082169050919050565b611d5f81611d2b565b8114611d69575f5ffd5b50565b5f81359050611d7a81611d56565b92915050565b5f60208284031215611d9557611d94611c30565b5b5f611da284828501611d6c565b91505092915050565b5f8115159050919050565b611dbf81611dab565b82525050565b5f602082019050611dd85f830184611db6565b92915050565b5f60208284031215611df357611df2611c30565b5b5f611e0084828501611cb1565b91505092915050565b5f81519050919050565b5f82825260208201905092915050565b8281835e5f83830152505050565b5f601f19601f8301169050919050565b5f611e4b82611e09565b611e558185611e13565b9350611e65818560208601611e23565b611e6e81611e31565b840191505092915050565b5f6020820190508181035f830152611e918184611e41565b905092915050565b5f5ffd5b7f4e487b71000000000000000000000000000000000000000000000000000000005f52604160045260245ffd5b611ed382611e31565b810181811067ffffffffffffffff82111715611ef257611ef1611e9d565b5b80604052505050565b5f611f04611c27565b9050611f108282611eca565b919050565b5f67ffffffffffffffff821115611f2f57611f2e611e9d565b5b602082029050602081019050919050565b5f5ffd5b5f611f56611f5184611f15565b611efb565b90508083825260208201905060208402830185811115611f7957611f78611f40565b5b835b81811015611fa25780611f8e8882611cb1565b845260208401935050602081019050611f7b565b5050509392505050565b5f82601f830112611fc057611fbf611e99565b5b8135611fd0848260208601611f44565b91505092915050565b5f5ffd5b5f67ffffffffffffffff821115611ff757611ff6611e9d565b5b61200082611e31565b9050602081019050919050565b828183375f83830152505050565b5f61202d61202884611fdd565b611efb565b90508281526020810184848401111561204957612048611fd9565b5b61205484828561200d565b509392505050565b5f82601f8301126120705761206f611e99565b5b813561208084826020860161201b565b91505092915050565b5f5f5f5f5f60a086880312156120a2576120a1611c30565b5b5f6120af88828901611c7e565b95505060206120c088828901611c7e565b945050604086013567ffffffffffffffff8111156120e1576120e0611c34565b5b6120ed88828901611fac565b935050606086013567ffffffffffffffff81111561210e5761210d611c34565b5b61211a88828901611fac565b925050608086013567ffffffffffffffff81111561213b5761213a611c34565b5b6121478882890161205c565b9150509295509295909350565b5f67ffffffffffffffff82111561216e5761216d611e9d565b5b602082029050602081019050919050565b5f61219161218c84612154565b611efb565b905080838252602082019050602084028301858111156121b4576121b3611f40565b5b835b818110156121dd57806121c98882611c7e565b8452602084019350506020810190506121b6565b5050509392505050565b5f82601f8301126121fb576121fa611e99565b5b813561220b84826020860161217f565b91505092915050565b5f5f6040838503121561222a57612229611c30565b5b5f83013567ffffffffffffffff81111561224757612246611c34565b5b612253858286016121e7565b925050602083013567ffffffffffffffff81111561227457612273611c34565b5b61228085828601611fac565b9150509250929050565b5f81519050919050565b5f82825260208201905092915050565b5f819050602082019050919050565b6122bc81611c92565b82525050565b5f6122cd83836122b3565b60208301905092915050565b5f602082019050919050565b5f6122ef8261228a565b6122f98185612294565b9350612304836122a4565b805f5b8381101561233457815161231b88826122c2565b9750612326836122d9565b925050600181019050612307565b5085935050505092915050565b5f6020820190508181035f83015261235981846122e5565b905092915050565b5f819050919050565b5f61238461237f61237a84611c38565b612361565b611c38565b9050919050565b5f6123958261236a565b9050919050565b5f6123a68261238b565b9050919050565b6123b68161239c565b82525050565b5f6020820190506123cf5f8301846123ad565b92915050565b5f5f5f606084860312156123ec576123eb611c30565b5b5f6123f986828701611c7e565b935050602061240a86828701611cb1565b925050604061241b86828701611cb1565b9150509250925092565b5f6020828403121561243a57612439611c30565b5b5f61244784828501611c7e565b91505092915050565b61245981611c57565b82525050565b5f6020820190506124725f830184612450565b92915050565b61248181611dab565b811461248b575f5ffd5b50565b5f8135905061249c81612478565b92915050565b5f5f604083850312156124b8576124b7611c30565b5b5f6124c585828601611c7e565b92505060206124d68582860161248e565b9150509250929050565b5f5f604083850312156124f6576124f5611c30565b5b5f61250385828601611c7e565b925050602061251485828601611c7e565b9150509250929050565b5f5f5f5f5f60a0868803121561253757612536611c30565b5b5f61254488828901611c7e565b955050602061255588828901611c7e565b945050604061256688828901611cb1565b935050606061257788828901611cb1565b925050608086013567ffffffffffffffff81111561259857612597611c34565b5b6125a48882890161205c565b9150509295509295909350565b7f4e487b71000000000000000000000000000000000000000000000000000000005f52602260045260245ffd5b5f60028204905060018216806125f557607f821691505b602082108103612608576126076125b1565b5b50919050565b5f6040820190506126215f830185611d03565b61262e6020830184611d03565b9392505050565b7f4e487b71000000000000000000000000000000000000000000000000000000005f52603260045260245ffd5b7f4e6f7420617574686f72697a6564206469737472696275746f720000000000005f82015250565b5f612696601a83611e13565b91506126a182612662565b602082019050919050565b5f6020820190508181035f8301526126c38161268a565b9050919050565b7f496e73756666696369656e7420746f6b656e2062616c616e63650000000000005f82015250565b5f6126fe601a83611e13565b9150612709826126ca565b602082019050919050565b5f6020820190508181035f83015261272b816126f2565b9050919050565b5f8151905061274081611c9b565b92915050565b5f6020828403121561275b5761275a611c30565b5b5f61276884828501612732565b91505092915050565b7f4e487b71000000000000000000000000000000000000000000000000000000005f52601160045260245ffd5b5f6127a882611c92565b91506127b383611c92565b92508282026127c181611c92565b915082820484148315176127d8576127d7612771565b5b5092915050565b7f4e487b71000000000000000000000000000000000000000000000000000000005f52601260045260245ffd5b5f61281682611c92565b915061282183611c92565b925082612831576128306127df565b5b828204905092915050565b5f60808201905061284f5f830187611d03565b61285c6020830186611d03565b6128696040830185611d03565b6128766060830184611d03565b95945050505050565b5f6040820190506128925f830185612450565b61289f6020830184612450565b9392505050565b5f6080820190506128b95f830187612450565b6128c66020830186611d03565b6128d36040830185611d03565b6128e06060830184611d03565b95945050505050565b5f6128f382611c92565b91506128fe83611c92565b925082820190508082111561291657612915612771565b5b92915050565b5f6040820190508181035f83015261293481856122e5565b9050818103602083015261294881846122e5565b90509392505050565b5f81519050919050565b5f82825260208201905092915050565b5f61297582612951565b61297f818561295b565b935061298f818560208601611e23565b61299881611e31565b840191505092915050565b5f60a0820190506129b65f830188612450565b6129c36020830187612450565b81810360408301526129d581866122e5565b905081810360608301526129e981856122e5565b905081810360808301526129fd818461296b565b90509695505050505050565b5f81519050612a1781611d56565b92915050565b5f60208284031215612a3257612a31611c30565b5b5f612a3f84828501612a09565b91505092915050565b5f60a082019050612a5b5f830188612450565b612a686020830187612450565b612a756040830186611d03565b612a826060830185611d03565b8181036080830152612a94818461296b565b9050969550505050505056fea2646970667358221220489092f0b0bdd33ab7e2f31994ac2e089f231d6eeb9849a5c6dc53d7b5e9796d64736f6c634300081c003368747470733a2f2f63616d707573636861696e2e6c6f63616c2f6170692f746f6b656e2f7b69647d2e6a736f6e",
  "linkReferences": {},
  "deployedLinkReferences": {},
  "immutableReferences": {},
  "inputSourceName": "project/contracts/CampusToken.sol",
  "buildInfoId": "solc-0_8_28-341992a09e5bbef66a374b624a9345c717def183"
}